:020000020000FC
:1000000008E00EBF0FEF0DBF0CE107B9429843980F
:10001000449855D044D01FD023D01DD00FEF0AB93B
:10002000409A2A9A01D0FECF3099FECF2A9800003C
:100030000EBD2DB527FFFDCF0EB52A9A1ED0402F3D
:10004000429811E05DD004E16AD0142F429A49D061
:1000500001E065D008950CE204B901E50CBD0895F6
:1000600007E60093C40002E00093C00006E000939E
:10007000C20008E10093C10008951F931091C000D1
:1000800015FFFCCF0093C6001F9108951F93109198
:10009000C00017FFFCCF0091C6001F910895429841
:1000A00012E02ED001E03BD0429811E029D004E1CB
:1000B00036D042981CE024D001E031D0089508ECFD
:1000C0002ED0429810E31CD00AE229D0429810E3C7
:1000D00017D002E024D0429810E312D002E01FD0E3
:1000E0000895512F507F5BB9449A449801E017D08E
:1000F0001295107F1BB9449A449801E010D00895DE
:10010000512F507F5BB9449A449801E008D0129572
:10011000107F1BB9449A449801E001D00895F02E55
:1001200008ECE02EEA940000E9F7FA94D1F708957C
:00000001FF
